{
  "_format": "hh-sol-artifact-1",
  "contractName": "Exchange",
  "sourceName": "contracts/Exchange.sol",
  "abi": [
    {
      "anonymous": false,
      "inputs": [
        {
          "indexed": true,
          "internalType": "address",
          "name": "previousOwner",
          "type": "address"
        },
        {
          "indexed": true,
          "internalType": "address",
          "name": "newOwner",
          "type": "address"
        }
      ],
      "name": "OwnershipTransferred",
      "type": "event"
    },
    {
      "inputs": [
        {
          "internalType": "address",
          "name": "account",
          "type": "address"
        }
      ],
      "name": "addressToString",
      "outputs": [
        {
          "internalType": "string",
          "name": "",
          "type": "string"
        }
      ],
      "stateMutability": "pure",
      "type": "function"
    },
    {
      "inputs": [
        {
          "internalType": "bytes",
          "name": "data",
          "type": "bytes"
        }
      ],
      "name": "byteToString",
      "outputs": [
        {
          "internalType": "string",
          "name": "",
          "type": "string"
        }
      ],
      "stateMutability": "pure",
      "type": "function"
    },
    {
      "inputs": [
        {
          "components": [
            {
              "internalType": "enum LibOrder.TradeDir",
              "name": "dir",
              "type": "uint8"
            },
            {
              "internalType": "address",
              "name": "maker",
              "type": "address"
            },
            {
              "components": [
                {
                  "internalType": "enum LibAsset.SettleType",
                  "name": "settleType",
                  "type": "uint8"
                },
                {
                  "components": [
                    {
                      "components": [
                        {
                          "internalType": "enum LibAsset.AssetType",
                          "name": "baseType",
                          "type": "uint8"
                        },
                        {
                          "internalType": "uint256",
                          "name": "extraType",
                          "type": "uint256"
                        },
                        {
                          "internalType": "address",
                          "name": "contractAddr",
                          "type": "address"
                        }
                      ],
                      "internalType": "struct LibAsset.Code",
                      "name": "code",
                      "type": "tuple"
                    },
                    {
                      "internalType": "uint256",
                      "name": "value",
                      "type": "uint256"
                    }
                  ],
                  "internalType": "struct LibAsset.BaseAsset",
                  "name": "baseAsset",
                  "type": "tuple"
                },
                {
                  "internalType": "uint256",
                  "name": "extraValue",
                  "type": "uint256"
                }
              ],
              "internalType": "struct LibAsset.Asset",
              "name": "makerAsset",
              "type": "tuple"
            },
            {
              "internalType": "address",
              "name": "taker",
              "type": "address"
            },
            {
              "components": [
                {
                  "internalType": "enum LibAsset.SettleType",
                  "name": "settleType",
                  "type": "uint8"
                },
                {
                  "components": [
                    {
                      "components": [
                        {
                          "internalType": "enum LibAsset.AssetType",
                          "name": "baseType",
                          "type": "uint8"
                        },
                        {
                          "internalType": "uint256",
                          "name": "extraType",
                          "type": "uint256"
                        },
                        {
                          "internalType": "address",
                          "name": "contractAddr",
                          "type": "address"
                        }
                      ],
                      "internalType": "struct LibAsset.Code",
                      "name": "code",
                      "type": "tuple"
                    },
                    {
                      "internalType": "uint256",
                      "name": "value",
                      "type": "uint256"
                    }
                  ],
                  "internalType": "struct LibAsset.BaseAsset",
                  "name": "baseAsset",
                  "type": "tuple"
                },
                {
                  "internalType": "uint256",
                  "name": "extraValue",
                  "type": "uint256"
                }
              ],
              "internalType": "struct LibAsset.Asset",
              "name": "takerAsset",
              "type": "tuple"
            },
            {
              "internalType": "uint256",
              "name": "fee",
              "type": "uint256"
            },
            {
              "internalType": "address",
              "name": "feeRecipient",
              "type": "address"
            },
            {
              "internalType": "uint256",
              "name": "startTime",
              "type": "uint256"
            },
            {
              "internalType": "uint256",
              "name": "endTime",
              "type": "uint256"
            },
            {
              "internalType": "uint256",
              "name": "salt",
              "type": "uint256"
            }
          ],
          "internalType": "struct LibOrder.Order",
          "name": "order",
          "type": "tuple"
        }
      ],
      "name": "cancelSingle",
      "outputs": [],
      "stateMutability": "nonpayable",
      "type": "function"
    },
    {
      "inputs": [
        {
          "components": [
            {
              "internalType": "enum LibOrder.TradeDir",
              "name": "dir",
              "type": "uint8"
            },
            {
              "internalType": "address",
              "name": "maker",
              "type": "address"
            },
            {
              "components": [
                {
                  "internalType": "enum LibAsset.SettleType",
                  "name": "settleType",
                  "type": "uint8"
                },
                {
                  "components": [
                    {
                      "components": [
                        {
                          "internalType": "enum LibAsset.AssetType",
                          "name": "baseType",
                          "type": "uint8"
                        },
                        {
                          "internalType": "uint256",
                          "name": "extraType",
                          "type": "uint256"
                        },
                        {
                          "internalType": "address",
                          "name": "contractAddr",
                          "type": "address"
                        }
                      ],
                      "internalType": "struct LibAsset.Code",
                      "name": "code",
                      "type": "tuple"
                    },
                    {
                      "internalType": "uint256",
                      "name": "value",
                      "type": "uint256"
                    }
                  ],
                  "internalType": "struct LibAsset.BaseAsset",
                  "name": "baseAsset",
                  "type": "tuple"
                },
                {
                  "internalType": "uint256",
                  "name": "extraValue",
                  "type": "uint256"
                }
              ],
              "internalType": "struct LibAsset.Asset",
              "name": "makerAsset",
              "type": "tuple"
            },
            {
              "internalType": "address",
              "name": "taker",
              "type": "address"
            },
            {
              "components": [
                {
                  "internalType": "enum LibAsset.SettleType",
                  "name": "settleType",
                  "type": "uint8"
                },
                {
                  "components": [
                    {
                      "components": [
                        {
                          "internalType": "enum LibAsset.AssetType",
                          "name": "baseType",
                          "type": "uint8"
                        },
                        {
                          "internalType": "uint256",
                          "name": "extraType",
                          "type": "uint256"
                        },
                        {
                          "internalType": "address",
                          "name": "contractAddr",
                          "type": "address"
                        }
                      ],
                      "internalType": "struct LibAsset.Code",
                      "name": "code",
                      "type": "tuple"
                    },
                    {
                      "internalType": "uint256",
                      "name": "value",
                      "type": "uint256"
                    }
                  ],
                  "internalType": "struct LibAsset.BaseAsset",
                  "name": "baseAsset",
                  "type": "tuple"
                },
                {
                  "internalType": "uint256",
                  "name": "extraValue",
                  "type": "uint256"
                }
              ],
              "internalType": "struct LibAsset.Asset",
              "name": "takerAsset",
              "type": "tuple"
            },
            {
              "internalType": "uint256",
              "name": "fee",
              "type": "uint256"
            },
            {
              "internalType": "address",
              "name": "feeRecipient",
              "type": "address"
            },
            {
              "internalType": "uint256",
              "name": "startTime",
              "type": "uint256"
            },
            {
              "internalType": "uint256",
              "name": "endTime",
              "type": "uint256"
            },
            {
              "internalType": "uint256",
              "name": "salt",
              "type": "uint256"
            }
          ],
          "internalType": "struct LibOrder.Order",
          "name": "leftOrder",
          "type": "tuple"
        },
        {
          "internalType": "bytes",
          "name": "leftSign",
          "type": "bytes"
        },
        {
          "components": [
            {
              "internalType": "enum LibOrder.TradeDir",
              "name": "dir",
              "type": "uint8"
            },
            {
              "internalType": "address",
              "name": "maker",
              "type": "address"
            },
            {
              "components": [
                {
                  "internalType": "enum LibAsset.SettleType",
                  "name": "settleType",
                  "type": "uint8"
                },
                {
                  "components": [
                    {
                      "components": [
                        {
                          "internalType": "enum LibAsset.AssetType",
                          "name": "baseType",
                          "type": "uint8"
                        },
                        {
                          "internalType": "uint256",
                          "name": "extraType",
                          "type": "uint256"
                        },
                        {
                          "internalType": "address",
                          "name": "contractAddr",
                          "type": "address"
                        }
                      ],
                      "internalType": "struct LibAsset.Code",
                      "name": "code",
                      "type": "tuple"
                    },
                    {
                      "internalType": "uint256",
                      "name": "value",
                      "type": "uint256"
                    }
                  ],
                  "internalType": "struct LibAsset.BaseAsset",
                  "name": "baseAsset",
                  "type": "tuple"
                },
                {
                  "internalType": "uint256",
                  "name": "extraValue",
                  "type": "uint256"
                }
              ],
              "internalType": "struct LibAsset.Asset",
              "name": "makerAsset",
              "type": "tuple"
            },
            {
              "internalType": "address",
              "name": "taker",
              "type": "address"
            },
            {
              "components": [
                {
                  "internalType": "enum LibAsset.SettleType",
                  "name": "settleType",
                  "type": "uint8"
                },
                {
                  "components": [
                    {
                      "components": [
                        {
                          "internalType": "enum LibAsset.AssetType",
                          "name": "baseType",
                          "type": "uint8"
                        },
                        {
                          "internalType": "uint256",
                          "name": "extraType",
                          "type": "uint256"
                        },
                        {
                          "internalType": "address",
                          "name": "contractAddr",
                          "type": "address"
                        }
                      ],
                      "internalType": "struct LibAsset.Code",
                      "name": "code",
                      "type": "tuple"
                    },
                    {
                      "internalType": "uint256",
                      "name": "value",
                      "type": "uint256"
                    }
                  ],
                  "internalType": "struct LibAsset.BaseAsset",
                  "name": "baseAsset",
                  "type": "tuple"
                },
                {
                  "internalType": "uint256",
                  "name": "extraValue",
                  "type": "uint256"
                }
              ],
              "internalType": "struct LibAsset.Asset",
              "name": "takerAsset",
              "type": "tuple"
            },
            {
              "internalType": "uint256",
              "name": "fee",
              "type": "uint256"
            },
            {
              "internalType": "address",
              "name": "feeRecipient",
              "type": "address"
            },
            {
              "internalType": "uint256",
              "name": "startTime",
              "type": "uint256"
            },
            {
              "internalType": "uint256",
              "name": "endTime",
              "type": "uint256"
            },
            {
              "internalType": "uint256",
              "name": "salt",
              "type": "uint256"
            }
          ],
          "internalType": "struct LibOrder.Order",
          "name": "rightOrder",
          "type": "tuple"
        },
        {
          "internalType": "bytes",
          "name": "rightSign",
          "type": "bytes"
        }
      ],
      "name": "matchSingle",
      "outputs": [],
      "stateMutability": "payable",
      "type": "function"
    },
    {
      "inputs": [],
      "name": "owner",
      "outputs": [
        {
          "internalType": "address",
          "name": "",
          "type": "address"
        }
      ],
      "stateMutability": "view",
      "type": "function"
    },
    {
      "inputs": [],
      "name": "renounceOwnership",
      "outputs": [],
      "stateMutability": "nonpayable",
      "type": "function"
    },
    {
      "inputs": [
        {
          "internalType": "address",
          "name": "transferProxy",
          "type": "address"
        }
      ],
      "name": "setProxy",
      "outputs": [],
      "stateMutability": "nonpayable",
      "type": "function"
    },
    {
      "inputs": [
        {
          "internalType": "address",
          "name": "newOwner",
          "type": "address"
        }
      ],
      "name": "transferOwnership",
      "outputs": [],
      "stateMutability": "nonpayable",
      "type": "function"
    }
  ],
  "bytecode": "0x60806040523480156200001157600080fd5b50600062000024620000c860201b60201c565b9050806000806101000a81548173ffffffffffffffffffffffffffffffffffffffff021916908373ffffffffffffffffffffffffffffffffffffffff1602179055508073ffffffffffffffffffffffffffffffffffffffff16600073ffffffffffffffffffffffffffffffffffffffff167f8be0079c531659141344cd1fd0a4f28419497f9722a3daafe3b4186f6b6457e060405160405180910390a350620000d0565b600033905090565b61366680620000e06000396000f3fe60806040526004361061007b5760003560e01c80638da5cb5b1161004e5780638da5cb5b1461012d57806397107d6d14610158578063dc42587914610181578063f2fde38b146101aa5761007b565b80631f6c77561461008057806335cb7033146100bd5780635e57966d146100d9578063715018a614610116575b600080fd5b34801561008c57600080fd5b506100a760048036038101906100a29190612236565b6101d3565b6040516100b49190612e58565b60405180910390f35b6100d760048036038101906100d291906122a1565b610623565b005b3480156100e557600080fd5b5061010060048036038101906100fb91906121e4565b610943565b60405161010d9190612e58565b60405180910390f35b34801561012257600080fd5b5061012b610974565b005b34801561013957600080fd5b50610142610aae565b60405161014f9190612c33565b60405180910390f35b34801561016457600080fd5b5061017f600480360381019061017a91906121e4565b610ad7565b005b34801561018d57600080fd5b506101a860048036038101906101a39190612277565b610b97565b005b3480156101b657600080fd5b506101d160048036038101906101cc91906121e4565b610c3a565b005b606060006040518060400160405280601081526020017f3031323334353637383961626364656600000000000000000000000000000000815250905060006002845161021f9190613290565b600261022b9190613209565b67ffffffffffffffff81111561026a577f4e487b7100000000000000000000000000000000000000000000000000000000600052604160045260246000fd5b6040519080825280601f01601f19166020018201604052801561029c5781602001600182028036833780820191505090505b5090507f3000000000000000000000000000000000000000000000000000000000000000816000815181106102fa577f4e487b7100000000000000000000000000000000000000000000000000000000600052603260045260246000fd5b60200101907effffffffffffffffffffffffffffffffffffffffffffffffffffffffffffff1916908160001a9053507f780000000000000000000000000000000000000000000000000000000000000081600181518110610384577f4e487b7100000000000000000000000000000000000000000000000000000000600052603260045260246000fd5b60200101907effffffffffffffffffffffffffffffffffffffffffffffffffffffffffffff1916908160001a90535060005b8451811015610618578260048683815181106103fb577f4e487b7100000000000000000000000000000000000000000000000000000000600052603260045260246000fd5b602001015160f81c60f81b7effffffffffffffffffffffffffffffffffffffffffffffffffffffffffffff1916901c60f81c60ff1681518110610467577f4e487b7100000000000000000000000000000000000000000000000000000000600052603260045260246000fd5b602001015160f81c60f81b826002836104809190613290565b600261048c9190613209565b815181106104c3577f4e487b7100000000000000000000000000000000000000000000000000000000600052603260045260246000fd5b60200101907effffffffffffffffffffffffffffffffffffffffffffffffffffffffffffff1916908160001a90535082600f60f81b868381518110610531577f4e487b7100000000000000000000000000000000000000000000000000000000600052603260045260246000fd5b602001015160f81c60f81b1660f81c60ff168151811061057a577f4e487b7100000000000000000000000000000000000000000000000000000000600052603260045260246000fd5b602001015160f81c60f81b826002836105939190613290565b600361059f9190613209565b815181106105d6577f4e487b7100000000000000000000000000000000000000000000000000000000600052603260045260246000fd5b60200101907effffffffffffffffffffffffffffffffffffffffffffffffffffffffffffff1916908160001a90535080806106109061342e565b9150506103b6565b508092505050919050565b6000600181111561065d577f4e487b7100000000000000000000000000000000000000000000000000000000600052602160045260246000fd5b8460000151600181111561069a577f4e487b7100000000000000000000000000000000000000000000000000000000600052602160045260246000fd5b14801561071a57506001808111156106db577f4e487b7100000000000000000000000000000000000000000000000000000000600052602160045260246000fd5b82600001516001811115610718577f4e487b7100000000000000000000000000000000000000000000000000000000600052602160045260246000fd5b145b610759576040517f08c379a000000000000000000000000000000000000000000000000000000000815260040161075090612efa565b60405180910390fd5b61076284610de3565b158015610775575061077382610de3565b155b6107b4576040517f08c379a00000000000000000000000000000000000000000000000000000000081526004016107ab9061301a565b60405180910390fd5b3373ffffffffffffffffffffffffffffffffffffffff16846020015173ffffffffffffffffffffffffffffffffffffffff16148061082157503373ffffffffffffffffffffffffffffffffffffffff16826020015173ffffffffffffffffffffffffffffffffffffffff16145b610860576040517f08c379a000000000000000000000000000000000000000000000000000000000815260040161085790612ffa565b60405180910390fd5b61086a8484610e1a565b6108a9576040517f08c379a00000000000000000000000000000000000000000000000000000000081526004016108a09061305a565b60405180910390fd5b6108b38282610e1a565b6108f2576040517f08c379a00000000000000000000000000000000000000000000000000000000081526004016108e9906130fa565b60405180910390fd5b6000806108ff8685610e68565b9150915061090c86610b97565b61091584610b97565b6109288660200151856020015184611146565b61093b8460200151876020015183611146565b505050505050565b606061096d826040516020016109599190612bdd565b6040516020818303038152906040526101d3565b9050919050565b61097c61126e565b73ffffffffffffffffffffffffffffffffffffffff1661099a610aae565b73ffffffffffffffffffffffffffffffffffffffff16146109f0576040517f08c379a00000000000000000000000000000000000000000000000000000000081526004016109e79061309a565b60405180910390fd5b600073ffffffffffffffffffffffffffffffffffffffff1660008054906101000a900473ffffffffffffffffffffffffffffffffffffffff1673ffffffffffffffffffffffffffffffffffffffff167f8be0079c531659141344cd1fd0a4f28419497f9722a3daafe3b4186f6b6457e060405160405180910390a360008060006101000a81548173ffffffffffffffffffffffffffffffffffffffff021916908373ffffffffffffffffffffffffffffffffffffffff160217905550565b60008060009054906101000a900473ffffffffffffffffffffffffffffffffffffffff16905090565b610adf61126e565b73ffffffffffffffffffffffffffffffffffffffff16610afd610aae565b73ffffffffffffffffffffffffffffffffffffffff1614610b53576040517f08c379a0000000000000000000000000000000000000000000000000000000008152600401610b4a9061309a565b60405180910390fd5b80600260006101000a81548173ffffffffffffffffffffffffffffffffffffffff021916908373ffffffffffffffffffffffffffffffffffffffff16021790555050565b6000610ba282611276565b9050600015156001600083815260200190815260200160002060009054906101000a900460ff16151514610c0b576040517f08c379a0000000000000000000000000000000000000000000000000000000008152600401610c029061313a565b60405180910390fd5b600180600083815260200190815260200160002060006101000a81548160ff0219169083151502179055505050565b610c4261126e565b73ffffffffffffffffffffffffffffffffffffffff16610c60610aae565b73ffffffffffffffffffffffffffffffffffffffff1614610cb6576040517f08c379a0000000000000000000000000000000000000000000000000000000008152600401610cad9061309a565b60405180910390fd5b600073ffffffffffffffffffffffffffffffffffffffff168173ffffffffffffffffffffffffffffffffffffffff161415610d26576040517f08c379a0000000000000000000000000000000000000000000000000000000008152600401610d1d90612f1a565b60405180910390fd5b8073ffffffffffffffffffffffffffffffffffffffff1660008054906101000a900473ffffffffffffffffffffffffffffffffffffffff1673ffffffffffffffffffffffffffffffffffffffff167f8be0079c531659141344cd1fd0a4f28419497f9722a3daafe3b4186f6b6457e060405160405180910390a3806000806101000a81548173ffffffffffffffffffffffffffffffffffffffff021916908373ffffffffffffffffffffffffffffffffffffffff16021790555050565b600080610def83611276565b90506001600082815260200190815260200160002060009054906101000a900460ff16915050919050565b6000610e2e610e2884611276565b836112f2565b73ffffffffffffffffffffffffffffffffffffffff16836020015173ffffffffffffffffffffffffffffffffffffffff1614905092915050565b610e70611e6c565b610e78611e6c565b610e9a8460400151602001516000015184608001516020015160000151611331565b610ed9576040517f08c379a0000000000000000000000000000000000000000000000000000000008152600401610ed090612eba565b60405180910390fd5b610efb8460800151602001516000015184604001516020015160000151611331565b610f3a576040517f08c379a0000000000000000000000000000000000000000000000000000000008152600401610f31906130da565b60405180910390fd5b826060015173ffffffffffffffffffffffffffffffffffffffff16846020015173ffffffffffffffffffffffffffffffffffffffff161480610fac5750600073ffffffffffffffffffffffffffffffffffffffff16836060015173ffffffffffffffffffffffffffffffffffffffff16145b610fb557600080fd5b836060015173ffffffffffffffffffffffffffffffffffffffff16836020015173ffffffffffffffffffffffffffffffffffffffff1614806110275750600073ffffffffffffffffffffffffffffffffffffffff16846060015173ffffffffffffffffffffffffffffffffffffffff16145b61103057600080fd5b600061104a85604001518660e00151876101000151611419565b9050600061106686608001518760e00151886101000151611419565b9050600061108286604001518760e00151886101000151611419565b9050600061109e87608001518860e00151896101000151611419565b905080602001518460200151146110ea576040517f08c379a00000000000000000000000000000000000000000000000000000000081526004016110e190612f7a565b60405180910390fd5b816020015183602001511115611135576040517f08c379a000000000000000000000000000000000000000000000000000000000815260040161112c90612eda565b60405180910390fd5b838295509550505050509250929050565b60016004811115611180577f4e487b7100000000000000000000000000000000000000000000000000000000600052602160045260246000fd5b81600001516000015160048111156111c1577f4e487b7100000000000000000000000000000000000000000000000000000000600052602160045260246000fd5b14156111d7576111d283838361156b565b611269565b600260009054906101000a900473ffffffffffffffffffffffffffffffffffffffff1673ffffffffffffffffffffffffffffffffffffffff16636fbcc5a58484846040518463ffffffff1660e01b815260040161123693929190612c4e565b600060405180830381600087803b15801561125057600080fd5b505af1158015611264573d6000803e3d6000fd5b505050505b505050565b600033905090565b60008160000151826020015161128f8460400151611a73565b84606001516112a18660800151611a73565b8660a001518760c001518860e001518961010001518a61012001516040516020016112d59a99989796959493929190612dbc565b604051602081830303815290604052805190602001209050919050565b600080611325846040516020016113099190612bf8565b6040516020818303038152906040528051906020012084611ae1565b90508091505092915050565b600081600001516004811115611370577f4e487b7100000000000000000000000000000000000000000000000000000000600052602160045260246000fd5b836000015160048111156113ad577f4e487b7100000000000000000000000000000000000000000000000000000000600052602160045260246000fd5b1480156113c1575081602001518360200151145b80156114005750816040015173ffffffffffffffffffffffffffffffffffffffff16836040015173ffffffffffffffffffffffffffffffffffffffff16145b1561140e5760019050611413565b600090505b92915050565b611421611e6c565b6000604051806040016040528086602001516000015181526020018660200151602001518152509050600180811115611483577f4e487b7100000000000000000000000000000000000000000000000000000000600052602160045260246000fd5b856000015160018111156114c0577f4e487b7100000000000000000000000000000000000000000000000000000000600052602160045260246000fd5b14156115605782421115611509576040517f08c379a00000000000000000000000000000000000000000000000000000000081526004016115009061311a565b60405180910390fd5b600061154561153661151b4288611bab565b6115318960200151602001518a60400151611bab565b611bc1565b6115408688611bab565b611bd7565b9050611555826020015182611bab565b826020018181525050505b809150509392505050565b600160048111156115a5577f4e487b7100000000000000000000000000000000000000000000000000000000600052602160045260246000fd5b81600001516000015160048111156115e6577f4e487b7100000000000000000000000000000000000000000000000000000000600052602160045260246000fd5b14156116b3578273ffffffffffffffffffffffffffffffffffffffff163373ffffffffffffffffffffffffffffffffffffffff161461165a576040517f08c379a000000000000000000000000000000000000000000000000000000000815260040161165190612f5a565b60405180910390fd5b806020015134146116a0576040517f08c379a000000000000000000000000000000000000000000000000000000000815260040161169790612f3a565b60405180910390fd5b6116ae828260200151611bed565b611a6e565b600260048111156116ed577f4e487b7100000000000000000000000000000000000000000000000000000000600052602160045260246000fd5b816000015160000151600481111561172e577f4e487b7100000000000000000000000000000000000000000000000000000000600052602160045260246000fd5b14156117d55780600001516040015173ffffffffffffffffffffffffffffffffffffffff166323b872dd848484602001516040518463ffffffff1660e01b815260040161177d93929190612c85565b602060405180830381600087803b15801561179757600080fd5b505af11580156117ab573d6000803e3d6000fd5b505050506040513d601f19601f820116820180604052508101906117cf919061220d565b50611a6d565b6003600481111561180f577f4e487b7100000000000000000000000000000000000000000000000000000000600052602160045260246000fd5b8160000151600001516004811115611850577f4e487b7100000000000000000000000000000000000000000000000000000000600052602160045260246000fd5b141561192157600181602001511461189d576040517f08c379a00000000000000000000000000000000000000000000000000000000081526004016118949061307a565b60405180910390fd5b80600001516040015173ffffffffffffffffffffffffffffffffffffffff166342842e0e84848460000151602001516040518463ffffffff1660e01b81526004016118ea93929190612c85565b600060405180830381600087803b15801561190457600080fd5b505af1158015611918573d6000803e3d6000fd5b50505050611a6c565b60048081111561195a577f4e487b7100000000000000000000000000000000000000000000000000000000600052602160045260246000fd5b816000015160000151600481111561199b577f4e487b7100000000000000000000000000000000000000000000000000000000600052602160045260246000fd5b1415611a3057606081600001516040015173ffffffffffffffffffffffffffffffffffffffff1663f242432a85858560000151602001518660200151866040518663ffffffff1660e01b81526004016119f8959493929190612cbc565b600060405180830381600087803b158015611a1257600080fd5b505af1158015611a26573d6000803e3d6000fd5b5050505050611a6b565b6040517f08c379a0000000000000000000000000000000000000000000000000000000008152600401611a62906130ba565b60405180910390fd5b5b5b5b505050565b600081600001518260200151600001516000015183602001516000015160200151846020015160000151604001518560200151602001518660400151604051602001611ac496959493929190612d5b565b604051602081830303815290604052805190602001209050919050565b600080600080604185511415611b0e576020850151925060408501519150606085015160001a9050611b94565b604085511415611b58576040850151602086015193507f7fffffffffffffffffffffffffffffffffffffffffffffffffffffffffffffff81169250601b8160ff1c01915050611b93565b6040517f08c379a0000000000000000000000000000000000000000000000000000000008152600401611b8a90612e9a565b60405180910390fd5b5b611ba086828585611ce1565b935050505092915050565b60008183611bb991906132ea565b905092915050565b60008183611bcf9190613290565b905092915050565b60008183611be5919061325f565b905092915050565b80471015611c30576040517f08c379a0000000000000000000000000000000000000000000000000000000008152600401611c2790612fda565b60405180910390fd5b60008273ffffffffffffffffffffffffffffffffffffffff1682604051611c5690612c1e565b60006040518083038185875af1925050503d8060008114611c93576040519150601f19603f3d011682016040523d82523d6000602084013e611c98565b606091505b5050905080611cdc576040517f08c379a0000000000000000000000000000000000000000000000000000000008152600401611cd390612f9a565b60405180910390fd5b505050565b60007f7fffffffffffffffffffffffffffffff5d576e7357a4501ddfe92f46681b20a08260001c1115611d49576040517f08c379a0000000000000000000000000000000000000000000000000000000008152600401611d4090612fba565b60405180910390fd5b601b8460ff161480611d5e5750601c8460ff16145b611d9d576040517f08c379a0000000000000000000000000000000000000000000000000000000008152600401611d949061303a565b60405180910390fd5b600060018686868660405160008152602001604052604051611dc29493929190612d16565b6020604051602081039080840390855afa158015611de4573d6000803e3d6000fd5b505050602060405103519050600073ffffffffffffffffffffffffffffffffffffffff168173ffffffffffffffffffffffffffffffffffffffff161415611e60576040517f08c379a0000000000000000000000000000000000000000000000000000000008152600401611e5790612e7a565b60405180910390fd5b80915050949350505050565b6040518060400160405280611e7f611e8c565b8152602001600081525090565b604051806060016040528060006004811115611ed1577f4e487b7100000000000000000000000000000000000000000000000000000000600052602160045260246000fd5b815260200160008152602001600073ffffffffffffffffffffffffffffffffffffffff1681525090565b6000611f0e611f098461318b565b61315a565b905082815260208101848484011115611f2657600080fd5b611f318482856133ec565b509392505050565b600081359050611f48816135bb565b92915050565b600081519050611f5d816135d2565b92915050565b600082601f830112611f7457600080fd5b8135611f84848260208601611efb565b91505092915050565b600081359050611f9c816135e9565b92915050565b600081359050611fb1816135f9565b92915050565b600081359050611fc681613609565b92915050565b600060c08284031215611fde57600080fd5b611fe8606061315a565b90506000611ff884828501611fa2565b600083015250602061200c8482850161202c565b60208301525060a0612020848285016121cf565b60408301525092915050565b60006080828403121561203e57600080fd5b612048604061315a565b9050600061205884828501612078565b600083015250606061206c848285016121cf565b60208301525092915050565b60006060828403121561208a57600080fd5b612094606061315a565b905060006120a484828501611f8d565b60008301525060206120b8848285016121cf565b60208301525060406120cc84828501611f39565b60408301525092915050565b600061028082840312156120eb57600080fd5b6120f661014061315a565b9050600061210684828501611fb7565b600083015250602061211a84828501611f39565b602083015250604061212e84828501611fcc565b60408301525061010061214384828501611f39565b60608301525061012061215884828501611fcc565b6080830152506101e061216d848285016121cf565b60a08301525061020061218284828501611f39565b60c083015250610220612197848285016121cf565b60e0830152506102406121ac848285016121cf565b610100830152506102606121c2848285016121cf565b6101208301525092915050565b6000813590506121de81613619565b92915050565b6000602082840312156121f657600080fd5b600061220484828501611f39565b91505092915050565b60006020828403121561221f57600080fd5b600061222d84828501611f4e565b91505092915050565b60006020828403121561224857600080fd5b600082013567ffffffffffffffff81111561226257600080fd5b61226e84828501611f63565b91505092915050565b6000610280828403121561228a57600080fd5b6000612298848285016120d8565b91505092915050565b60008060008061054085870312156122b857600080fd5b60006122c6878288016120d8565b94505061028085013567ffffffffffffffff8111156122e457600080fd5b6122f087828801611f63565b9350506102a0612302878288016120d8565b92505061052085013567ffffffffffffffff81111561232057600080fd5b61232c87828801611f63565b91505092959194509250565b6123418161331e565b82525050565b6123508161331e565b82525050565b6123676123628261331e565b613477565b82525050565b6123768161333c565b82525050565b61238d6123888261333c565b613489565b82525050565b600061239e826131bb565b6123a881856131d1565b93506123b88185602086016133fb565b6123c181613561565b840191505092915050565b6123d5816133b6565b82525050565b6123e4816133b6565b82525050565b6123f3816133c8565b82525050565b612402816133da565b82525050565b6000612413826131c6565b61241d81856131ed565b935061242d8185602086016133fb565b61243681613561565b840191505092915050565b600061244e6018836131ed565b91507f45434453413a20696e76616c6964207369676e617475726500000000000000006000830152602082019050919050565b600061248e601f836131ed565b91507f45434453413a20696e76616c6964207369676e6174757265206c656e677468006000830152602082019050919050565b60006124ce601c836131ed565b91507f53656c6c20617373657420636f6465206973206e6f74206d61746368000000006000830152602082019050919050565b600061250e601c836131fe565b91507f19457468657265756d205369676e6564204d6573736167653a0a3332000000006000830152601c82019050919050565b600061254e601c836131ed565b91507f4275792061737365742076616c7565206973206e6f74206d61746368000000006000830152602082019050919050565b600061258e601a836131ed565b91507f747261646520646972656374696f6e20697320696e76616c69640000000000006000830152602082019050919050565b60006125ce6026836131ed565b91507f4f776e61626c653a206e6577206f776e657220697320746865207a65726f206160008301527f64647265737300000000000000000000000000000000000000000000000000006020830152604082019050919050565b60006126346022836131ed565b91507f455448203a206d73672e76616c756520213d206261736541737365742e76616c60008301527f75650000000000000000000000000000000000000000000000000000000000006020830152604082019050919050565b600061269a6021836131ed565b91507f455448203a206d73672e73656e646572206973206e6f7420746865207061796560008301527f72000000000000000000000000000000000000000000000000000000000000006020830152604082019050919050565b6000612700601d836131ed565b91507f53656c6c2061737365742076616c7565206973206e6f74206d617463680000006000830152602082019050919050565b6000612740603a836131ed565b91507f416464726573733a20756e61626c6520746f2073656e642076616c75652c207260008301527f6563697069656e74206d617920686176652072657665727465640000000000006020830152604082019050919050565b60006127a66022836131ed565b91507f45434453413a20696e76616c6964207369676e6174757265202773272076616c60008301527f75650000000000000000000000000000000000000000000000000000000000006020830152604082019050919050565b600061280c601d836131ed565b91507f416464726573733a20696e73756666696369656e742062616c616e63650000006000830152602082019050919050565b600061284c6015836131ed565b91507f4e6f2065786368616e676520617574686f7269747900000000000000000000006000830152602082019050919050565b600061288c6011836131ed565b91507f4f726465722069732063616e63656c65640000000000000000000000000000006000830152602082019050919050565b60006128cc6022836131ed565b91507f45434453413a20696e76616c6964207369676e6174757265202776272076616c60008301527f75650000000000000000000000000000000000000000000000000000000000006020830152604082019050919050565b60006129326015836131ed565b91507f4c656674206f72646572207369676e206572726f7200000000000000000000006000830152602082019050919050565b6000612972601d836131ed565b91507f455243373231203a206261736541737365742e76616c756520213d20310000006000830152602082019050919050565b60006129b26020836131ed565b91507f4f776e61626c653a2063616c6c6572206973206e6f7420746865206f776e65726000830152602082019050919050565b60006129f26000836131e2565b9150600082019050919050565b6000612a0c6020836131ed565b91507f6261736541737365742e636f64652e6261736554797065206973206572726f726000830152602082019050919050565b6000612a4c601b836131ed565b91507f42757920617373657420636f6465206973206e6f74206d6174636800000000006000830152602082019050919050565b6000612a8c6016836131ed565b91507f5269676874206f72646572207369676e206572726f72000000000000000000006000830152602082019050919050565b6000612acc6017836131ed565b91507f747261646520686173206265656e2066696e69736865640000000000000000006000830152602082019050919050565b6000612b0c601b836131ed565b91507f746865206f7264657220686173206265656e2063616e63656c656400000000006000830152602082019050919050565b608082016000820151612b556000850182612b6e565b506020820151612b686060850182612bb0565b50505050565b606082016000820151612b8460008501826123cc565b506020820151612b976020850182612bb0565b506040820151612baa6040850182612338565b50505050565b612bb98161339f565b82525050565b612bc88161339f565b82525050565b612bd7816133a9565b82525050565b6000612be98284612356565b60148201915081905092915050565b6000612c0382612501565b9150612c0f828461237c565b60208201915081905092915050565b6000612c29826129e5565b9150819050919050565b6000602082019050612c486000830184612347565b92915050565b600060c082019050612c636000830186612347565b612c706020830185612347565b612c7d6040830184612b3f565b949350505050565b6000606082019050612c9a6000830186612347565b612ca76020830185612347565b612cb46040830184612bbf565b949350505050565b600060a082019050612cd16000830188612347565b612cde6020830187612347565b612ceb6040830186612bbf565b612cf86060830185612bbf565b8181036080830152612d0a8184612393565b90509695505050505050565b6000608082019050612d2b600083018761236d565b612d386020830186612bce565b612d45604083018561236d565b612d52606083018461236d565b95945050505050565b600060c082019050612d7060008301896123ea565b612d7d60208301886123db565b612d8a6040830187612bbf565b612d976060830186612347565b612da46080830185612bbf565b612db160a0830184612bbf565b979650505050505050565b600061014082019050612dd2600083018d6123f9565b612ddf602083018c612347565b612dec604083018b61236d565b612df9606083018a612347565b612e06608083018961236d565b612e1360a0830188612bbf565b612e2060c0830187612347565b612e2d60e0830186612bbf565b612e3b610100830185612bbf565b612e49610120830184612bbf565b9b9a5050505050505050505050565b60006020820190508181036000830152612e728184612408565b905092915050565b60006020820190508181036000830152612e9381612441565b9050919050565b60006020820190508181036000830152612eb381612481565b9050919050565b60006020820190508181036000830152612ed3816124c1565b9050919050565b60006020820190508181036000830152612ef381612541565b9050919050565b60006020820190508181036000830152612f1381612581565b9050919050565b60006020820190508181036000830152612f33816125c1565b9050919050565b60006020820190508181036000830152612f5381612627565b9050919050565b60006020820190508181036000830152612f738161268d565b9050919050565b60006020820190508181036000830152612f93816126f3565b9050919050565b60006020820190508181036000830152612fb381612733565b9050919050565b60006020820190508181036000830152612fd381612799565b9050919050565b60006020820190508181036000830152612ff3816127ff565b9050919050565b600060208201905081810360008301526130138161283f565b9050919050565b600060208201905081810360008301526130338161287f565b9050919050565b60006020820190508181036000830152613053816128bf565b9050919050565b6000602082019050818103600083015261307381612925565b9050919050565b6000602082019050818103600083015261309381612965565b9050919050565b600060208201905081810360008301526130b3816129a5565b9050919050565b600060208201905081810360008301526130d3816129ff565b9050919050565b600060208201905081810360008301526130f381612a3f565b9050919050565b6000602082019050818103600083015261311381612a7f565b9050919050565b6000602082019050818103600083015261313381612abf565b9050919050565b6000602082019050818103600083015261315381612aff565b9050919050565b6000604051905081810181811067ffffffffffffffff8211171561318157613180613532565b5b8060405250919050565b600067ffffffffffffffff8211156131a6576131a5613532565b5b601f19601f8301169050602081019050919050565b600081519050919050565b600081519050919050565b600082825260208201905092915050565b600081905092915050565b600082825260208201905092915050565b600081905092915050565b60006132148261339f565b915061321f8361339f565b9250827fffffffffffffffffffffffffffffffffffffffffffffffffffffffffffffffff03821115613254576132536134a5565b5b828201905092915050565b600061326a8261339f565b91506132758361339f565b925082613285576132846134d4565b5b828204905092915050565b600061329b8261339f565b91506132a68361339f565b9250817fffffffffffffffffffffffffffffffffffffffffffffffffffffffffffffffff04831182151516156132df576132de6134a5565b5b828202905092915050565b60006132f58261339f565b91506133008361339f565b925082821015613313576133126134a5565b5b828203905092915050565b60006133298261337f565b9050919050565b60008115159050919050565b6000819050919050565b60008190506133548261357f565b919050565b600081905061336782613593565b919050565b600081905061337a826135a7565b919050565b600073ffffffffffffffffffffffffffffffffffffffff82169050919050565b6000819050919050565b600060ff82169050919050565b60006133c182613346565b9050919050565b60006133d382613359565b9050919050565b60006133e58261336c565b9050919050565b82818337600083830152505050565b60005b838110156134195780820151818401526020810190506133fe565b83811115613428576000848401525b50505050565b60006134398261339f565b91507fffffffffffffffffffffffffffffffffffffffffffffffffffffffffffffffff82141561346c5761346b6134a5565b5b600182019050919050565b600061348282613493565b9050919050565b6000819050919050565b600061349e82613572565b9050919050565b7f4e487b7100000000000000000000000000000000000000000000000000000000600052601160045260246000fd5b7f4e487b7100000000000000000000000000000000000000000000000000000000600052601260045260246000fd5b7f4e487b7100000000000000000000000000000000000000000000000000000000600052602160045260246000fd5b7f4e487b7100000000000000000000000000000000000000000000000000000000600052604160045260246000fd5b6000601f19601f8301169050919050565b60008160601b9050919050565b600581106135905761358f613503565b5b50565b600281106135a4576135a3613503565b5b50565b600281106135b8576135b7613503565b5b50565b6135c48161331e565b81146135cf57600080fd5b50565b6135db81613330565b81146135e657600080fd5b50565b600581106135f657600080fd5b50565b6002811061360657600080fd5b50565b6002811061361657600080fd5b50565b6136228161339f565b811461362d57600080fd5b5056fea26469706673582212201b9d32141404a61b3b8a02e545d426aa19bd6aed247d937d8ae4a27491f7df4964736f6c63430008000033",
  "linkReferences": {},
  "deployedLinkReferences": {}
}