{
  "_format": "hh-sol-artifact-1",
  "contractName": "TransferProxy",
  "sourceName": "contracts/TransferProxy.sol",
  "abi": [
    {
      "anonymous": false,
      "inputs": [
        {
          "indexed": true,
          "internalType": "address",
          "name": "previousOwner",
          "type": "address"
        },
        {
          "indexed": true,
          "internalType": "address",
          "name": "newOwner",
          "type": "address"
        }
      ],
      "name": "OwnershipTransferred",
      "type": "event"
    },
    {
      "inputs": [],
      "name": "accessAddr",
      "outputs": [
        {
          "internalType": "address",
          "name": "",
          "type": "address"
        }
      ],
      "stateMutability": "view",
      "type": "function"
    },
    {
      "inputs": [],
      "name": "owner",
      "outputs": [
        {
          "internalType": "address",
          "name": "",
          "type": "address"
        }
      ],
      "stateMutability": "view",
      "type": "function"
    },
    {
      "inputs": [],
      "name": "renounceOwnership",
      "outputs": [],
      "stateMutability": "nonpayable",
      "type": "function"
    },
    {
      "inputs": [
        {
          "internalType": "address",
          "name": "addr",
          "type": "address"
        }
      ],
      "name": "setAccessible",
      "outputs": [],
      "stateMutability": "nonpayable",
      "type": "function"
    },
    {
      "inputs": [
        {
          "internalType": "address",
          "name": "from",
          "type": "address"
        },
        {
          "internalType": "address",
          "name": "to",
          "type": "address"
        },
        {
          "components": [
            {
              "components": [
                {
                  "internalType": "enum LibAsset.AssetType",
                  "name": "baseType",
                  "type": "uint8"
                },
                {
                  "internalType": "uint256",
                  "name": "extraType",
                  "type": "uint256"
                },
                {
                  "internalType": "address",
                  "name": "contractAddr",
                  "type": "address"
                }
              ],
              "internalType": "struct LibAsset.Code",
              "name": "code",
              "type": "tuple"
            },
            {
              "internalType": "uint256",
              "name": "value",
              "type": "uint256"
            }
          ],
          "internalType": "struct LibAsset.BaseAsset",
          "name": "baseAsset",
          "type": "tuple"
        }
      ],
      "name": "transferFrom",
      "outputs": [],
      "stateMutability": "nonpayable",
      "type": "function"
    },
    {
      "inputs": [
        {
          "internalType": "address",
          "name": "newOwner",
          "type": "address"
        }
      ],
      "name": "transferOwnership",
      "outputs": [],
      "stateMutability": "nonpayable",
      "type": "function"
    }
  ],
  "bytecode": "0x608060405234801561001057600080fd5b5060006100216100c460201b60201c565b9050806000806101000a81548173ffffffffffffffffffffffffffffffffffffffff021916908373ffffffffffffffffffffffffffffffffffffffff1602179055508073ffffffffffffffffffffffffffffffffffffffff16600073ffffffffffffffffffffffffffffffffffffffff167f8be0079c531659141344cd1fd0a4f28419497f9722a3daafe3b4186f6b6457e060405160405180910390a3506100cc565b600033905090565b611411806100db6000396000f3fe608060405234801561001057600080fd5b50600436106100625760003560e01c80636fbcc5a514610067578063715018a614610083578063794ae4d11461008d5780638da5cb5b146100a9578063bcd4c0eb146100c7578063f2fde38b146100e5575b600080fd5b610081600480360381019061007c9190610cc0565b610101565b005b61008b6101a1565b005b6100a760048036038101906100a29190610c97565b6102db565b005b6100b161039b565b6040516100be9190611096565b60405180910390f35b6100cf6103c4565b6040516100dc9190611096565b60405180910390f35b6100ff60048036038101906100fa9190610c97565b6103ea565b005b3373ffffffffffffffffffffffffffffffffffffffff16600160009054906101000a900473ffffffffffffffffffffffffffffffffffffffff1673ffffffffffffffffffffffffffffffffffffffff1614610191576040517f08c379a000000000000000000000000000000000000000000000000000000000815260040161018890611222565b60405180910390fd5b61019c838383610593565b505050565b6101a9610a9b565b73ffffffffffffffffffffffffffffffffffffffff166101c761039b565b73ffffffffffffffffffffffffffffffffffffffff161461021d576040517f08c379a000000000000000000000000000000000000000000000000000000000815260040161021490611202565b60405180910390fd5b600073ffffffffffffffffffffffffffffffffffffffff1660008054906101000a900473ffffffffffffffffffffffffffffffffffffffff1673ffffffffffffffffffffffffffffffffffffffff167f8be0079c531659141344cd1fd0a4f28419497f9722a3daafe3b4186f6b6457e060405160405180910390a360008060006101000a81548173ffffffffffffffffffffffffffffffffffffffff021916908373ffffffffffffffffffffffffffffffffffffffff160217905550565b6102e3610a9b565b73ffffffffffffffffffffffffffffffffffffffff1661030161039b565b73ffffffffffffffffffffffffffffffffffffffff1614610357576040517f08c379a000000000000000000000000000000000000000000000000000000000815260040161034e90611202565b60405180910390fd5b80600160006101000a81548173ffffffffffffffffffffffffffffffffffffffff021916908373ffffffffffffffffffffffffffffffffffffffff16021790555050565b60008060009054906101000a900473ffffffffffffffffffffffffffffffffffffffff16905090565b600160009054906101000a900473ffffffffffffffffffffffffffffffffffffffff1681565b6103f2610a9b565b73ffffffffffffffffffffffffffffffffffffffff1661041061039b565b73ffffffffffffffffffffffffffffffffffffffff1614610466576040517f08c379a000000000000000000000000000000000000000000000000000000000815260040161045d90611202565b60405180910390fd5b600073ffffffffffffffffffffffffffffffffffffffff168173ffffffffffffffffffffffffffffffffffffffff1614156104d6576040517f08c379a00000000000000000000000000000000000000000000000000000000081526004016104cd90611142565b60405180910390fd5b8073ffffffffffffffffffffffffffffffffffffffff1660008054906101000a900473ffffffffffffffffffffffffffffffffffffffff1673ffffffffffffffffffffffffffffffffffffffff167f8be0079c531659141344cd1fd0a4f28419497f9722a3daafe3b4186f6b6457e060405160405180910390a3806000806101000a81548173ffffffffffffffffffffffffffffffffffffffff021916908373ffffffffffffffffffffffffffffffffffffffff16021790555050565b600160048111156105cd577f4e487b7100000000000000000000000000000000000000000000000000000000600052602160045260246000fd5b816000015160000151600481111561060e577f4e487b7100000000000000000000000000000000000000000000000000000000600052602160045260246000fd5b14156106db578273ffffffffffffffffffffffffffffffffffffffff163373ffffffffffffffffffffffffffffffffffffffff1614610682576040517f08c379a000000000000000000000000000000000000000000000000000000000815260040161067990611182565b60405180910390fd5b806020015134146106c8576040517f08c379a00000000000000000000000000000000000000000000000000000000081526004016106bf90611162565b60405180910390fd5b6106d6828260200151610aa3565b610a96565b60026004811115610715577f4e487b7100000000000000000000000000000000000000000000000000000000600052602160045260246000fd5b8160000151600001516004811115610756577f4e487b7100000000000000000000000000000000000000000000000000000000600052602160045260246000fd5b14156107fd5780600001516040015173ffffffffffffffffffffffffffffffffffffffff166323b872dd848484602001516040518463ffffffff1660e01b81526004016107a5939291906110b1565b602060405180830381600087803b1580156107bf57600080fd5b505af11580156107d3573d6000803e3d6000fd5b505050506040513d601f19601f820116820180604052508101906107f79190610d0f565b50610a95565b60036004811115610837577f4e487b7100000000000000000000000000000000000000000000000000000000600052602160045260246000fd5b8160000151600001516004811115610878577f4e487b7100000000000000000000000000000000000000000000000000000000600052602160045260246000fd5b14156109495760018160200151146108c5576040517f08c379a00000000000000000000000000000000000000000000000000000000081526004016108bc906111e2565b60405180910390fd5b80600001516040015173ffffffffffffffffffffffffffffffffffffffff166342842e0e84848460000151602001516040518463ffffffff1660e01b8152600401610912939291906110b1565b600060405180830381600087803b15801561092c57600080fd5b505af1158015610940573d6000803e3d6000fd5b50505050610a94565b600480811115610982577f4e487b7100000000000000000000000000000000000000000000000000000000600052602160045260246000fd5b81600001516000015160048111156109c3577f4e487b7100000000000000000000000000000000000000000000000000000000600052602160045260246000fd5b1415610a5857606081600001516040015173ffffffffffffffffffffffffffffffffffffffff1663f242432a85858560000151602001518660200151866040518663ffffffff1660e01b8152600401610a209594939291906110e8565b600060405180830381600087803b158015610a3a57600080fd5b505af1158015610a4e573d6000803e3d6000fd5b5050505050610a93565b6040517f08c379a0000000000000000000000000000000000000000000000000000000008152600401610a8a90611242565b60405180910390fd5b5b5b5b505050565b600033905090565b80471015610ae6576040517f08c379a0000000000000000000000000000000000000000000000000000000008152600401610add906111c2565b60405180910390fd5b60008273ffffffffffffffffffffffffffffffffffffffff1682604051610b0c90611081565b60006040518083038185875af1925050503d8060008114610b49576040519150601f19603f3d011682016040523d82523d6000602084013e610b4e565b606091505b5050905080610b92576040517f08c379a0000000000000000000000000000000000000000000000000000000008152600401610b89906111a2565b60405180910390fd5b505050565b600081359050610ba681611386565b92915050565b600081519050610bbb8161139d565b92915050565b600081359050610bd0816113b4565b92915050565b600060808284031215610be857600080fd5b610bf26040611262565b90506000610c0284828501610c22565b6000830152506060610c1684828501610c82565b60208301525092915050565b600060608284031215610c3457600080fd5b610c3e6060611262565b90506000610c4e84828501610bc1565b6000830152506020610c6284828501610c82565b6020830152506040610c7684828501610b97565b60408301525092915050565b600081359050610c91816113c4565b92915050565b600060208284031215610ca957600080fd5b6000610cb784828501610b97565b91505092915050565b600080600060c08486031215610cd557600080fd5b6000610ce386828701610b97565b9350506020610cf486828701610b97565b9250506040610d0586828701610bd6565b9150509250925092565b600060208284031215610d2157600080fd5b6000610d2f84828501610bac565b91505092915050565b610d41816112cb565b82525050565b6000610d5282611293565b610d5c818561129e565b9350610d6c818560208601611313565b610d7581611375565b840191505092915050565b6000610d8d6026836112ba565b91507f4f776e61626c653a206e6577206f776e657220697320746865207a65726f206160008301527f64647265737300000000000000000000000000000000000000000000000000006020830152604082019050919050565b6000610df36022836112ba565b91507f455448203a206d73672e76616c756520213d206261736541737365742e76616c60008301527f75650000000000000000000000000000000000000000000000000000000000006020830152604082019050919050565b6000610e596021836112ba565b91507f455448203a206d73672e73656e646572206973206e6f7420746865207061796560008301527f72000000000000000000000000000000000000000000000000000000000000006020830152604082019050919050565b6000610ebf603a836112ba565b91507f416464726573733a20756e61626c6520746f2073656e642076616c75652c207260008301527f6563697069656e74206d617920686176652072657665727465640000000000006020830152604082019050919050565b6000610f25601d836112ba565b91507f416464726573733a20696e73756666696369656e742062616c616e63650000006000830152602082019050919050565b6000610f65601d836112ba565b91507f455243373231203a206261736541737365742e76616c756520213d20310000006000830152602082019050919050565b6000610fa56020836112ba565b91507f4f776e61626c653a2063616c6c6572206973206e6f7420746865206f776e65726000830152602082019050919050565b6000610fe5601c836112ba565b91507f4d73672073656e646572206973206e6f742061636365737369626c65000000006000830152602082019050919050565b60006110256000836112af565b9150600082019050919050565b600061103f6020836112ba565b91507f6261736541737365742e636f64652e6261736554797065206973206572726f726000830152602082019050919050565b61107b81611309565b82525050565b600061108c82611018565b9150819050919050565b60006020820190506110ab6000830184610d38565b92915050565b60006060820190506110c66000830186610d38565b6110d36020830185610d38565b6110e06040830184611072565b949350505050565b600060a0820190506110fd6000830188610d38565b61110a6020830187610d38565b6111176040830186611072565b6111246060830185611072565b81810360808301526111368184610d47565b90509695505050505050565b6000602082019050818103600083015261115b81610d80565b9050919050565b6000602082019050818103600083015261117b81610de6565b9050919050565b6000602082019050818103600083015261119b81610e4c565b9050919050565b600060208201905081810360008301526111bb81610eb2565b9050919050565b600060208201905081810360008301526111db81610f18565b9050919050565b600060208201905081810360008301526111fb81610f58565b9050919050565b6000602082019050818103600083015261121b81610f98565b9050919050565b6000602082019050818103600083015261123b81610fd8565b9050919050565b6000602082019050818103600083015261125b81611032565b9050919050565b6000604051905081810181811067ffffffffffffffff8211171561128957611288611346565b5b8060405250919050565b600081519050919050565b600082825260208201905092915050565b600081905092915050565b600082825260208201905092915050565b60006112d6826112e9565b9050919050565b60008115159050919050565b600073ffffffffffffffffffffffffffffffffffffffff82169050919050565b6000819050919050565b60005b83811015611331578082015181840152602081019050611316565b83811115611340576000848401525b50505050565b7f4e487b7100000000000000000000000000000000000000000000000000000000600052604160045260246000fd5b6000601f19601f8301169050919050565b61138f816112cb565b811461139a57600080fd5b50565b6113a6816112dd565b81146113b157600080fd5b50565b600581106113c157600080fd5b50565b6113cd81611309565b81146113d857600080fd5b5056fea2646970667358221220cc5c16b9ca06720b9fb6e434fc73de2559da2ce74077990bd458e1934141369e64736f6c63430008000033",
  "linkReferences": {},
  "deployedLinkReferences": {}
}